:100000000C9434000C943E000C943E000C943E0082
:100010000C943E000C943E000C943E000C943E0068
:100020000C943E000C943E000C943E000C943E0058
:100030000C943E000C943E000C943E000C943E0048
:100040000C943E000C943E000C943E000C943E0038
:100050000C943E000C943E000C943E000C943E0028
:100060000C943E000C943E0011241FBECFEFD8E04C
:10007000DEBFCDBF0E945F020C94BD020C94000055
:10008000672B09F073C08A30910511F42898089500
:100090008B30910511F4299808958C30910511F455
:1000A0002A9808958D30910511F42B9808958E307B
:1000B000910511F42C9808958F30910511F42D9825
:1000C00008958031910511F42E980895813191059C
:1000D00011F42F9808958431910511F440980895F2
:1000E0008531910511F4419808958631910511F4F7
:1000F000429808958731910511F443980895883105
:10010000910511F4449808958931910511F44598A9
:1001100008958A31910511F4469808958E3191051C
:1001200011F4589808958F31910511F45998089554
:100130008032910511F45A9808958132910511F495
:100140005B9808958232910511F45C98089583328A
:10015000910511F45D9808958432910511F45E982B
:100160000895859709F073C05F9808958A309105C6
:1001700011F4289A08958B30910511F4299A089565
:100180008C30910511F42A9A08958D30910511F45F
:100190002B9A08958E30910511F42C9A08958F3082
:1001A000910511F42D9A08958031910511F42E9A3C
:1001B00008958131910511F42F9A089584319105A4
:1001C00011F4409A08958531910511F4419A0895EA
:1001D0008631910511F4429A08958731910511F401
:1001E000439A08958831910511F4449A089589310C
:1001F000910511F4459A08958A31910511F4469AB2
:1002000008958E31910511F4589A08958F31910512
:1002100011F4599A08958032910511F45A9A08956B
:100220008132910511F45B9A08958232910511F49F
:100230005C9A08958332910511F45D9A0895843291
:10024000910511F45E9A0895859709F45F9A0895CF
:10025000CF93C82F80FF07C061E070E082E290E09A
:100260000E94400006C060E070E082E290E00E94E0
:100270004000C1FF07C061E070E083E290E00E94AF
:10028000400006C060E070E083E290E00E94400021
:10029000C2FF07C061E070E084E290E00E9440008D
:1002A00006C060E070E084E290E00E944000C3FF7E
:1002B00007C061E070E085E290E00E94400006C067
:1002C00060E070E085E290E00E944000CF910895E8
:1002D000CF93C82F60E070E08AE090E00E94400079
:1002E0008C2F0E94280161E070E08BE090E00E947A
:1002F00040008FE99FE00197F1F700C0000060E047
:1003000070E08BE090E00E9440008FE99FE0019751
:10031000F1F700C00000CF91089580E00E946801CD
:1003200081E00E946801089580E00E9428012FEF7B
:1003300089EF90E0215080409040E1F700C000003C
:1003400083E00E9468018FE19EE40197F1F700C00D
:10035000000083E00E9468018FED9BEA0197F1F7AE
:1003600000C0000083E00E94680182E00E946801F2
:1003700082E00E94680188E00E94680180E00E949B
:1003800068018CE00E94680180E00E94680186E0BC
:100390000E9468010895CF93C82F61E070E08AE061
:1003A00090E00E9440008C2F82958F700E9428015F
:1003B00061E070E08BE090E00E9440008FE99FE0F8
:1003C0000197F1F700C0000060E070E08BE090E082
:1003D0000E9440008FE99FE00197F1F700C0000004
:1003E0008C2F8F700E94280161E070E08BE090E01C
:1003F0000E9440008FE99FE00197F1F700C00000E4
:1004000060E070E08BE090E00E9440008FE99FE0A8
:100410000197F1F700C00000CF910895E0ECF0E003
:10042000908195FFFDCF8093C6000895CF93DF9311
:10043000EC018881882331F021960E940E02899177
:100440008111FBCFDF91CF9108951092C50087E60F
:100450008093C40088E18093C10086E08093C2004D
:100460000895E0ECF0E080818823ECF78091C600ED
:100470000895EF92FF920F931F93CF93DF937C0128
:100480000E9431028A3061F08701C0E0D0E0F801BB
:1004900081938F0121960E9431028A30C1F702C0F8
:1004A000C0E0D0E0F701EC0FFD1F1082CE010196F5
:1004B000DF91CF911F910F91FF90EF900895CF930F
:1004C000DF93CDB7DEB7A8970FB6F894DEBF0FBEA7
:1004D000CDBF0E9425028FEF8AB984B98FE697E7D6
:1004E0009A8389838FE690E09C838B83FE01359607
:1004F00084E2DF011D928A95E9F78FE689830E94E5
:1005000094010E948D010F2EF0ECCF2ED12CF02DF6
:10051000F60180818823E4F7CE0101960E9439021A
:100520007C01CE0101960E941602FFEF23ED30E31D
:10053000F15020403040E1F700C00000C7010197B2
:10054000181619066CF48E010F5F1F4FEC0EFD1E7E
:10055000D8018D918D010E94CB010E151F05C1F7A9
:10056000BAEAEAE9FBE526E0B150E040F04020407D
:0E057000D9F700000E948D01CBCFF894FFCF89
:00000001FF
