:100000000C9434000C943E000C943E000C943E0082
:100010000C943E000C943E000C943E000C943E0068
:100020000C943E000C943E000C943E000C943E0058
:100030000C943E000C943E000C943E000C943E0048
:100040000C943E000C943E000C943E000C943E0038
:100050000C943E000C943E000C943E000C943E0028
:100060000C943E000C943E0011241FBECFEFD8E04C
:10007000DEBFCDBF0E9440000C94EE000C94000047
:10008000ECE7F0E0808180648083EAE7F0E0808143
:100090008360808380818068808383E084B917B81F
:1000A00081E085B988E08BB9569A83E884BD20E069
:1000B00030E010E0C8E7D0E0A9E7B0E005E00F2E9F
:1000C000F3E0CF2EF02DD12C0F2EFFE9FF2EF02DD7
:1000D0000F2EFFEDEF2EF02D8081806480838081D4
:1000E00086FDFDCF68818C9170E0782B8FE39CE9D1
:1000F0000197F1F700C000002617370719F18FE3C9
:100100009CE90197F1F700C00000CB010A96821725
:10011000930724F04497281739079CF49B01337800
:1001200033232CF4215031093C6F2F5F3F4FC9011D
:1001300099230CF403969595879595958795182F97
:1001400001C0B90142E050E002C04F5F5F4F9A0129
:100150002150310986B190E0022E02C09595879515
:100160000A94E2F780FF06C08FE39CE90197F1F75C
:1001700000C0000086B190E0022E02C095958795E0
:100180000A94E2F780FF1BC023303105A9F038F450
:100190002130310569F022303105C1F010C0243022
:1001A000310521F025303105A9F009C01FE30FC04A
:1001B00085B18C2585B90BC02D9A1D2D08C017BDA2
:1001C00005BD463051050CF29B0186CF1E2D17BD93
:1001D00005BDBBCFF7BC05BD1F2DF6CFF894FFCFF3
:00000001FF
