S01100006C6162325461736B322E73726563ED
S11300000C9434000C943E000C943E000C943E007E
S11300100C943E000C943E000C943E000C943E0064
S11300200C943E000C943E000C943E000C943E0054
S11300300C943E000C943E000C943E000C943E0044
S11300400C943E000C943E000C943E000C943E0034
S11300500C943E000C943E000C943E000C943E0024
S11300600C943E000C943E0011241FBECFEFD8E048
S1130070DEBFCDBF0E9440000C949C000C94000095
S113008083E084B981E085B988E08BB9569A83E826
S113009084BD259A17B860E075E0B3E0A0E0EFE90D
S11300A0FFED42E050E002C04F5F5F4F9A012150E4
S11300B0310986B190E0022E02C0959587950A9485
S11300C0E2F780FF06C08FE39CE90197F1F700C0D7
S11300D0000086B190E0022E02C0959587950A949F
S11300E0E2F780FF1BC023303105A9F038F421303A
S11300F0310569F022303105D9F010C024303105C2
S113010021F02530310581F009C06FE312C085B1BB
S11301108B2785B90EC02D9A6A2F0BC067BD75BD9C
S1130120463051050CF2BDCFE7BD75BD6E2FB9CF7A
S10F01306F2F67BD75BDB8CFF894FFCFEA
S9030000FC
