S01100006C6162325461736B322E73726563ED
S11300000C9434000C943E000C943E000C943E007E
S11300100C943E000C943E000C943E000C943E0064
S11300200C943E000C943E000C943E000C943E0054
S11300300C943E000C943E000C943E000C943E0044
S11300400C943E000C943E000C943E000C943E0034
S11300500C943E000C943E000C943E000C943E0024
S11300600C943E000C943E0011241FBECFEFD8E048
S1130070DEBFCDBF0E9440000C9493000C9400009E
S113008083E084B981E085B98AB18C608AB988E05B
S11300908BB9569A83E884BD259A17B845E0EFE3F7
S11300A07FE963E05FED81E090E026B130E0082E67
S11300B002C0359527950A94E2F720FF06C0AFE306
S11300C0BCE91197F1F700C0000026B130E0082E1A
S11300D002C0359527950A94E2F720FF1FC08330AC
S11300E09105A9F03CF48130910559F082309105D5
S11300F061F013C08430910569F08530910561F099
S11301000CC025B1262725B908C057BD06C017BCA9
S11301102D9A03C0E7BD01C077BD45BD0196863069
S10D0120910519F6C0CFF894FFCF43
S9030000FC
