:100000000C9434000C9458000C9449000C94490052
:100010000C9449000C9449000C9449000C9449003C
:100020000C9449000C9449000C9449000C9449002C
:100030000C9449000C9449000C9449000C9449001C
:100040000C9449000C9449000C9449000C9449000C
:100050000C9449000C9449000C9449000C944900FC
:100060000C9449000C94490011241FBECFEFD8E036
:10007000DEBFCDBF11E0A0E0B1E0EAE3F1E002C0F5
:1000800005900D92A030B107D9F70E944B000C9457
:100090009B000C9400008FEF84B925988AEC94EAB9
:1000A000909389008093880081E08DBB7894FFCF86
:1000B0001F920F920FB60F9211242F933F934F93DD
:1000C0005F936F938F939F93AF93BF93CF93DF9380
:1000D000EF93FF9380E090E0C1E0D0E0A0E8B0E0D3
:1000E000E1E8F0E06DE052E045B19E01082E02C06B
:1000F000220F331F0A94E2F7242B25B91C92608348
:10010000B19BFECF108256BB01968330910561F7FB
:1001100015B8FF91EF91DF91CF91BF91AF919F9172
:100120008F916F915F914F913F912F910F900FBEE3
:0A0130000F901F901895F894FFCF70
:00000001FF
