:100000000C9434000C9460000C9451000C9451003A
:100010000C9451000C9451000C9451000C9451001C
:100020000C9451000C9451000C9451000C9451000C
:100030000C9451000C9451000C9451000C945100FC
:100040000C9451000C9451000C9451000C945100EC
:100050000C9451000C9451000C9451000C945100DC
:100060000C9451000C94510011241FBECFEFD8E026
:10007000DEBFCDBF11E0A0E0B1E0EEEFF2E002C0E4
:1000800005900D92A430B107D9F721E0A4E0B1E0CA
:1000900001C01D92A830B207E1F70E9453000C94F2
:1000A0007D010C9400008FEF84B9259882E19AE7D6
:1000B000909389008093880081E08DBB7894FFCF76
:1000C0001F920F920FB60F9211242F933F934F93CD
:1000D0005F936F937F938F939F93AF93BF93CF93D0
:1000E000DF93EF93FF9380910401909105010E94AB
:1000F0000F0180E090E0C1E0D0E0A0E8B0E0E1E8EE
:10010000F0E06DE052E045B19E01082E02C0220FE2
:10011000331F0A94E2F7242B25B91C926083B19B0C
:10012000FECF108256BB01968330910561F715B85A
:100130008091040190910501A0910601B091070101
:100140000196A11DB11D8093040190930501A09318
:100150000601B0930701FF91EF91DF91CF91BF911D
:10016000AF919F918F917F916F915F914F913F914F
:100170002F910F900FBE0F901F9018958F929F9206
:10018000AF92BF92CF92DF92EF92FF92CF93DF9325
:10019000EC01688179818A819B81611571058105F6
:1001A000910521F464E279ED8BE597E02DE133EFE1
:1001B00041E050E00E941A0149015A019B01AC0143
:1001C000A7EAB1E40E9439016B017C01ACEEB4EF07
:1001D000A50194010E944701DC01CB018C0D9D1DFE
:1001E000AE1DBF1DB7FF03C00197A109B0488883AA
:1001F0009983AA83BB839F77DF91CF91FF90EF9084
:10020000DF90CF90BF90AF909F908F9008950E9405
:10021000BE00089580E091E00E94BE000895A0E035
:10022000B0E08093000190930101A0930201B0938C
:1002300003010895052E97FB1EF400940E943101DE
:1002400057FD07D00E944C0107FC03D04EF40C94DC
:10025000310150954095309521953F4F4F4F5F4F5D
:10026000089590958095709561957F4F8F4F9F4F22
:1002700008950E946E01A59F900DB49F900DA49FBC
:10028000800D911D11240895B7FF0C9439010E942F
:100290003901821B930B0895A1E21A2EAA1BBB1BE6
:1002A000FD010DC0AA1FBB1FEE1FFF1FA217B30742
:1002B000E407F50720F0A21BB30BE40BF50B661F58
:1002C000771F881F991F1A9469F76095709580951C
:1002D00090959B01AC01BD01CF010895A29FB00193
:1002E000B39FC001A39F700D811D1124911DB29F6A
:0E02F000700D811D1124911D0895F894FFCF0B
:0402FE0001000000FB
:00000001FF
