S00C00004C6162312E73726563D8
S11300000C9434000C9449000C9449000C9449005D
S11300100C9449000C9449000C9449000C94490038
S11300200C9449000C9449000C9449000C94490028
S11300300C9449000C9449000C9449000C94490018
S11300400C9449000C9449000C9449000C94490008
S11300500C9449000C9449000C9449000C944900F8
S11300600C9449000C94490011241FBECFEFD8E032
S1130070DEBFCDBF11E0A0E0B1E0E2EDF0E002C0F0
S113008005900D92A030B107D9F70E944B000C9453
S113009067000C9400008FEF84B92598C8E8D0E07D
S11300A062E17AE7A0E8B0E0E1E8F0E04DE032E0B8
S11300B021E098E0798368831C924083B19BFECF52
S11300C0108236BB26BB85B1892785B9F3CFF89456
S10500D0FFCF5C
S9030000FC
