S01100006C6162325461736B312E73726563EE
S11300000C9434000C943E000C943E000C943E007E
S11300100C943E000C943E000C943E000C943E0064
S11300200C943E000C943E000C943E000C943E0054
S11300300C943E000C943E000C943E000C943E0044
S11300400C943E000C943E000C943E000C943E0034
S11300500C943E000C943E000C943E000C943E0024
S11300600C943E000C943E0011241FBECFEFD8E048
S1130070DEBFCDBF0E9440000C9472000C940000BF
S113008080E284B98AB18C608AB988E08BB9569AC7
S113009083E884BD80E090E05FE34FE93FED25E035
S11300A08130910571F01CF4009741F00FC082304B
S11300B0910549F08330910541F008C017BC2D9A91
S11300C005C057BD03C047BD01C037BD25BD01965E
S11300D06FEF77EAE1E661507040E040E1F700C07D
S10B00E00000DECFF894FFCF0D
S9030000FC
