S01100004C61623150617274332E7372656309
S11300000C9434000C9460000C9451000C94510036
S11300100C9451000C9451000C9451000C94510018
S11300200C9451000C9451000C9451000C94510008
S11300300C9451000C9451000C9451000C945100F8
S11300400C9451000C9451000C9451000C945100E8
S11300500C9451000C9451000C9451000C945100D8
S11300600C9451000C94510011241FBECFEFD8E022
S1130070DEBFCDBF11E0A0E0B1E0E2E8F3E002C0F2
S113008005900D92A430B107D9F721E0A4E0B1E0C6
S113009001C01D92A830B207E1F70E9453000C94EE
S11300A0BF010C9400008FEF84B9259882E19AE790
S11300B0909389008093880081E08DBB7894FFCF72
S11300C01F920F920FB60F921124DF92EF92FF92BC
S11300D00F931F932F933F934F935F936F937F934C
S11300E08F939F93AF93BF93CF93DF93EF93FF933C
S11300F089E590E00E9451010E944C0167E070E0A4
S11301000E94D800019620E030E0EE24E394F12C24
S113011008E810E0C0E8D0E0E1E8F0E00F2EFDE0F0
S1130120DF2EF02D72E065B1A701022E02C0440F4C
S1130130551F0A94E2F7462B45B9D80111969C93B2
S11301408E931882D082B19BFECF108276BB2F5F34
S11301503F4F2330310539F715B880910401909150
S11301600501A0910601B09107010196A11DB11DE1
S11301708093040190930501A0930601B0930701B5
S1130180FF91EF91DF91CF91BF91AF919F918F91AB
S11301907F916F915F914F913F912F911F910F919B
S11301A0FF90EF90DF900F900FBE0F901F90189567
S11301B097FB072E16F4009407D077FD09D00E9410
S11301C0EC0007FC05D03EF4909581959F4F08956F
S11301D0709561957F4F0895AA1BBB1B51E107C021
S11301E0AA1FBB1FA617B70710F0A61BB70B881FC3
S11301F0991F5A95A9F780959095BC01CD01089552
S11302008F929F92AF92BF92CF92DF92EF92FF9222
S1130210CF93DF93EC01688179818A819B81611599
S113022071058105910521F464E279ED8BE597E090
S11302302DE133EF41E050E00E945C0149015A0195
S11302409B01AC01A7EAB1E40E947B016B017C0134
S1130250ACEEB4EFA50194010E948901DC01CB014D
S11302608C0D9D1DAE1DBF1DB7FF03C00197A109D5
S1130270B04888839983AA83BB839F77DF91CF910A
S1130280FF90EF90DF90CF90BF90AF909F908F90B2
S113029008950E940001089580E091E00E94000109
S11302A00895A0E0B0E08093000190930101A09331
S11302B00201B09303010895052E97FB1EF40094E8
S11302C00E94730157FD07D00E948E0107FC03D0E2
S11302D04EF40C94730150954095309521953F4F01
S11302E04F4F5F4F089590958095709561957F4F1E
S11302F08F4F9F4F08950E94B001A59F900DB49F0A
S1130300900DA49F800D911D11240895B7FF0C94A6
S11303107B010E947B01821B930B0895A1E21A2E9C
S1130320AA1BBB1BFD010DC0AA1FBB1FEE1FFF1F95
S1130330A217B307E407F50720F0A21BB30BE40BE5
S1130340F50B661F771F881F991F1A9469F760952C
S11303507095809590959B01AC01BD01CF010895E6
S1130360A29FB001B39FC001A39F700D811D1124F2
S1130370911DB29F700D811D1124911D0895F89453
S1050380FFCFA9
S10703820100000072
S9030000FC
