S01100004C61623150617274332E7372656309
S11300000C9434000C945B000C9449000C9449004B
S11300100C9449000C9449000C9449000C94490038
S11300200C9449000C9449000C9449000C94490028
S11300300C9449000C9449000C9449000C94490018
S11300400C9449000C9449000C9449000C94490008
S11300500C9449000C9449000C9449000C944900F8
S11300600C9449000C94490011241FBECFEFD8E032
S1130070DEBFCDBF11E0A0E0B1E0EAE4F3E002C0EE
S113008005900D92A430B107D9F70E944B000C944F
S1130090A3010C94000014BC85E085BD8FEF84B9E6
S11300A025988AEC94EA909389008093880081E0F3
S11300B08DBB7894FFCF1F920F920FB60F9211242D
S11300C02F933F934F935F936F937F938F939F935C
S11300D0AF93BF93EF93FF9386B590E00E943501F1
S11300E014BC15BC0E94300166E070E00E94BC00A4
S11300F08230910599F02CF4009751F0019759F052
S113010019C08430910581F064F0059781F012C024
S113011081E085B911C082E085B90EC083E085B95C
S11301200BC08AE085B908C08BE085B905C08EE0B4
S113013085B902C08FE085B9109280008DE080936C
S11301408100B19BFECF1092810082E086BB15B87E
S113015014BC85E085BDFF91EF91BF91AF919F9154
S11301608F917F916F915F914F913F912F910F905C
S11301700FBE0F901F90189597FB072E16F400944E
S113018007D077FD09D00E94D00007FC05D03EF4CB
S1130190909581959F4F0895709561957F4F08952F
S11301A0AA1BBB1B51E107C0AA1FBB1FA617B70799
S11301B010F0A61BB70B881F991F5A95A9F78095B5
S11301C09095BC01CD0108958F929F92AF92BF92FA
S11301D0CF92DF92EF92FF92CF93DF93EC0168818D
S11301E079818A819B81611571058105910521F4CD
S11301F064E279ED8BE597E02DE133EF41E050E0E7
S11302000E94400149015A019B01AC01A7EAB1E4F3
S11302100E945F016B017C01ACEEB4EFA501940177
S11302200E946D01DC01CB018C0D9D1DAE1DBF1D17
S1130230B7FF03C00197A109B04888839983AA83B3
S1130240BB839F77DF91CF91FF90EF90DF90CF90AA
S1130250BF90AF909F908F9008950E94E4000895FE
S113026080E091E00E94E4000895A0E0B0E0809373
S1130270000190930101A0930201B093030108953A
S1130280052E97FB1EF400940E94570157FD07D0DA
S11302900E94720107FC03D04EF40C945701509550
S11302A04095309521953F4F4F4F5F4F089590955E
S11302B08095709561957F4F8F4F9F4F08950E9451
S11302C09401A59F900DB49F900DA49F800D911D46
S11302D011240895B7FF0C945F010E945F01821BF3
S11302E0930B0895A1E21A2EAA1BBB1BFD010DC09E
S11302F0AA1FBB1FEE1FFF1FA217B307E407F507D2
S113030020F0A21BB30BE40BF50B661F771F881FAD
S1130310991F1A9469F760957095809590959B0143
S1130320AC01BD01CF010895A29FB001B39FC001EC
S1130330A39F700D811D1124911DB29F700D811D0D
S10D03401124911D0895F894FFCFD5
S107034A01000000AA
S9030000FC
