S00F0000627574746F6E732E7372656306
S11300000C9434000C943E000C943E000C943E007E
S11300100C943E000C943E000C943E000C943E0064
S11300200C943E000C943E000C943E000C943E0054
S11300300C943E000C943E000C943E000C943E0044
S11300400C943E000C943E000C943E000C943E0034
S11300500C943E000C943E000C943E000C943E0024
S11300600C943E000C943E0011241FBECFEFD8E048
S1130070DEBFCDBF0E9440000C9459000C940000D8
S113008080E284B98FEF8BB92FEF83ED90E3215099
S113009080409040E1F700C000002D982FEF83EDE1
S11300A090E3215080409040E1F700C000002D9A79
S10900B0EBCFF894FFCF32
S9030000FC
