:100000000C9434000C943E000C943E000C943E0082
:100010000C943E000C943E000C943E000C943E0068
:100020000C943E000C943E000C943E000C943E0058
:100030000C943E000C943E000C943E000C943E0048
:100040000C943E000C943E000C943E000C943E0038
:100050000C943E000C943E000C943E000C943E0028
:100060000C943E000C943E0011241FBECFEFD8E04C
:10007000DEBFCDBF0E9440000C9468000C940000CD
:10008000259A17B840E222E030E086B190E0022ED7
:1000900002C0959587950A94E2F780FF06C08FE32A
:1000A0009CE90197F1F700C0000086B190E0022EB4
:1000B00002C0959587950A94E2F780FF03C085B149
:1000C000842785B92F5F3F4F26303105F1F6DBCF0E
:0400D000F894FFCFD2
:00000001FF
