S01100006C6162325461736B332E73726563EC
S11300000C9434000C943E000C943E000C943E007E
S11300100C943E000C943E000C943E000C943E0064
S11300200C943E000C943E000C943E000C943E0054
S11300300C943E000C943E000C943E000C943E0044
S11300400C943E000C943E000C943E000C943E0034
S11300500C943E000C943E000C943E000C943E0024
S11300600C943E000C943E0011241FBECFEFD8E048
S1130070DEBFCDBF0E9440000C9492000C9400009F
S113008082E084B982E8809380008AE180938100D1
S113009080E49CE99093870080938600E8E8F0E090
S11300A0ACE4B4E060ED77E048EB5BE020EA3FE0ED
S11300B088E893E11FEFC3EDD0E31150C040D04076
S11300C0E1F700C00000B183A0831FEFC3EDD0E3CC
S11300D01150C040D040E1F700C00000718360833C
S11300E01FEFC3EDD0E31150C040D040E1F700C092
S11300F00000518340831FEFC3EDD0E31150C04093
S1130100D040E1F700C00000318320831FEFC3ED2E
S1130110D0E31150C040D040E1F700C0000091830B
S10B01208083C8CFF894FFCFDF
S9030000FC
