S01100006C6162335461736B312E73726563ED
S11300000C9434000C9449000C9449000C9449005D
S11300100C9449000C9449000C9449000C94490038
S11300200C9449000C9449000C9449000C94490028
S11300300C9449000C9449000C9449000C94490018
S11300400C9449000C9449000C9449000C94490008
S11300500C9449000C9449000C9449000C944900F8
S11300600C9449000C94490011241FBECFEFD8E032
S1130070DEBFCDBF11E0A0E0B1E0E0E4F1E002C0FA
S113008005900D92AA31B107D9F70E9476000C941D
S11300909E000C9400001092C50087E68093C40073
S11300A088E18093C10086E08093C2000895E0EC6B
S11300B0F0E0908195FFFDCF8093C6000895E0ECB9
S11300C0F0E080818823ECF78091C6000895CF93F7
S11300D0DF93EC018881882331F021960E94570038
S11300E089918111FBCFDF91CF91089580E284B98A
S11300F00E944B000E945F00803379F42D982FEF0B
S113010083EC99E0215080409040E1F700C000006A
S113011080E091E00E946700EDCF813359F72D9A7A
S11301202FEF83EC99E0215080409040E1F700C02C
S113013000008DE091E00E946700DCCFF894FFCFCF
S11301404C4544206973206F6666210A004C45447F
S10D0150206973206F6E210A00007D
S9030000FC
