:100000000C9434000C943E000C943E000C943E0082
:100010000C943E000C943E000C943E000C943E0068
:100020000C943E000C943E000C943E000C943E0058
:100030000C943E000C943E000C943E000C943E0048
:100040000C943E000C943E000C943E000C943E0038
:100050000C943E000C943E000C943E000C943E0028
:100060000C943E000C943E0011241FBECFEFD8E04C
:10007000DEBFCDBF0E944E000C9468000C940000BF
:10008000ECE7F0E0808180648083EAE7F0E0808143
:10009000836080838081806880830895259A0E9490
:1000A0004000EAE7F0E0C8E7D0E0A9E7B0E08081EF
:1000B00080648083808186FDFDCF88812C9190E0D3
:1000C000922B813E910510F02D9AF1CF2D98EFCF14
:0400D000F894FFCFD2
:00000001FF
